{"abi":[{"type":"function","name":"increment","inputs":[],"outputs":[{"name":"","type":"uint256","internalType":"uint256"}],"stateMutability":"nonpayable"},{"type":"function","name":"number","inputs":[],"outputs":[{"name":"","type":"uint256","internalType":"uint256"}],"stateMutability":"view"},{"type":"function","name":"setNumber","inputs":[{"name":"newNumber","type":"uint256","internalType":"uint256"}],"outputs":[],"stateMutability":"nonpayable"},{"type":"function","name":"stop","inputs":[],"outputs":[],"stateMutability":"nonpayable"},{"type":"function","name":"terminate","inputs":[{"name":"addr","type":"address","internalType":"address payable"}],"outputs":[],"stateMutability":"nonpayable"},{"type":"function","name":"tryRevert","inputs":[],"outputs":[],"stateMutability":"nonpayable"}],"bytecode":{"object":"0x608060405234801561001057600080fd5b5061021d806100206000396000f3fe608060405234801561001057600080fd5b50600436106100625760003560e01c806307da68f5146100675780632efc3cee146100715780633fb5c1cb146100795780638381f58a1461008c578063d09de08a146100ab578063edb45529146100b3575b600080fd5b61006f6100c6565b005b61006f6100db565b61006f61008736600461013c565b600055565b61009560005481565b6040516100a29190610165565b60405180910390f35b6100956100f3565b61006f6100c1366004610196565b61010f565b6000805490806100d5836101cd565b91905055005b6000805490806100ea836101cd565b91905055600080fd5b600080548180610102836101cd565b9190505550600054905090565b806001600160a01b0316ff5b805b811461012857600080fd5b50565b80356101368161011b565b92915050565b60006020828403121561015157610151600080fd5b600061015d848461012b565b949350505050565b81815260208101610136565b60006001600160a01b038216610136565b61011d81610171565b803561013681610182565b6000602082840312156101ab576101ab600080fd5b600061015d848461018b565b634e487b7160e01b600052601160045260246000fd5b600060001982036101e0576101e06101b7565b506001019056fea2646970667358221220116ac9326d17e52c0f4cfb81e5a3c3fe3d9d96f537703c2b8499e7be4005153864736f6c63430008130033","linkReferences":{}},"methodIdentifiers":{"increment()":"d09de08a","number()":"8381f58a","setNumber(uint256)":"3fb5c1cb","stop()":"07da68f5","terminate(address)":"edb45529","tryRevert()":"2efc3cee"},"id":0}