{"abi":[{"type":"function","name":"calcPrimes","inputs":[{"name":"limit","type":"uint256","internalType":"uint256"}],"outputs":[{"name":"","type":"uint256","internalType":"uint256"}],"stateMutability":"nonpayable"},{"type":"function","name":"callBn256Add","inputs":[{"name":"ax","type":"bytes32","internalType":"bytes32"},{"name":"ay","type":"bytes32","internalType":"bytes32"},{"name":"bx","type":"bytes32","internalType":"bytes32"},{"name":"by","type":"bytes32","internalType":"bytes32"}],"outputs":[{"name":"result","type":"bytes32[2]","internalType":"bytes32[2]"}],"stateMutability":"nonpayable"},{"type":"function","name":"callBn256Pairing","inputs":[{"name":"input","type":"bytes","internalType":"bytes"}],"outputs":[{"name":"result","type":"bytes32","internalType":"bytes32"}],"stateMutability":"nonpayable"},{"type":"function","name":"callBn256ScalarMul","inputs":[{"name":"x","type":"bytes32","internalType":"bytes32"},{"name":"y","type":"bytes32","internalType":"bytes32"},{"name":"scalar","type":"bytes32","internalType":"bytes32"}],"outputs":[{"name":"result","type":"bytes32[2]","internalType":"bytes32[2]"}],"stateMutability":"nonpayable"},{"type":"function","name":"callDatacopy","inputs":[{"name":"data","type":"bytes","internalType":"bytes"}],"outputs":[{"name":"","type":"bytes","internalType":"bytes"}],"stateMutability":"nonpayable"},{"type":"function","name":"executionResults","inputs":[{"name":"","type":"uint256","internalType":"uint256"}],"outputs":[{"name":"","type":"uint256","internalType":"uint256"}],"stateMutability":"view"},{"type":"function","name":"generateNumber","inputs":[],"outputs":[{"name":"","type":"uint64","internalType":"uint64"}],"stateMutability":"nonpayable"},{"type":"function","name":"modExp","inputs":[{"name":"_b","type":"uint256","internalType":"uint256"},{"name":"_e","type":"uint256","internalType":"uint256"},{"name":"_m","type":"uint256","internalType":"uint256"}],"outputs":[{"name":"result","type":"uint256","internalType":"uint256"}],"stateMutability":"nonpayable"},{"type":"function","name":"modeBlock","inputs":[],"outputs":[{"name":"","type":"uint256","internalType":"uint256"}],"stateMutability":"view"},{"type":"function","name":"modeContract","inputs":[],"outputs":[{"name":"","type":"uint256","internalType":"uint256"}],"stateMutability":"view"},{"type":"function","name":"modeMsg","inputs":[],"outputs":[{"name":"","type":"uint256","internalType":"uint256"}],"stateMutability":"view"},{"type":"function","name":"modePrecompile","inputs":[],"outputs":[{"name":"","type":"uint256","internalType":"uint256"}],"stateMutability":"view"},{"type":"function","name":"modeTx","inputs":[],"outputs":[{"name":"","type":"uint256","internalType":"uint256"}],"stateMutability":"view"},{"type":"function","name":"primeNumbers","inputs":[{"name":"","type":"uint256","internalType":"uint256"}],"outputs":[{"name":"","type":"uint256","internalType":"uint256"}],"stateMutability":"view"},{"type":"function","name":"seed","inputs":[],"outputs":[{"name":"","type":"uint64","internalType":"uint64"}],"stateMutability":"view"},{"type":"function","name":"test","inputs":[{"name":"_seed","type":"uint64","internalType":"uint64"},{"name":"loops","type":"uint32","internalType":"uint32"},{"name":"mode","type":"uint256","internalType":"uint256"}],"outputs":[{"name":"","type":"bytes32","internalType":"bytes32"}],"stateMutability":"payable"},{"type":"event","name":"PrimeCount","inputs":[{"name":"count","type":"uint256","indexed":false,"internalType":"uint256"}],"anonymous":false},{"type":"event","name":"Test1","inputs":[{"name":"h0","type":"uint256","indexed":true,"internalType":"uint256"}],"anonymous":false},{"type":"event","name":"Test2","inputs":[{"name":"h0","type":"uint256","indexed":true,"internalType":"uint256"},{"name":"h1","type":"uint256","indexed":true,"internalType":"uint256"}],"anonymous":false},{"type":"event","name":"Test3","inputs":[{"name":"h0","type":"uint256","indexed":true,"internalType":"uint256"},{"name":"h1","type":"uint256","indexed":true,"internalType":"uint256"},{"name":"h2","type":"uint256","indexed":true,"internalType":"uint256"}],"anonymous":false},{"type":"event","name":"Test4","inputs":[{"name":"h0","type":"uint256","indexed":true,"internalType":"uint256"},{"name":"h1","type":"uint256","indexed":true,"internalType":"uint256"},{"name":"h2","type":"uint256","indexed":true,"internalType":"uint256"},{"name":"h3","type":"uint256","indexed":false,"internalType":"uint256"}],"anonymous":false},{"type":"event","name":"TestStart","inputs":[],"anonymous":true},{"type":"event","name":"TestStartSeed","inputs":[{"name":"seed","type":"uint64","indexed":false,"internalType":"uint64"}],"anonymous":false}],"bytecode":{"object":"0x608060405234801561001057600080fd5b50612b42806100206000396000f3fe6080604052600436106100f35760003560e01c8063763efc081161008a578063b2acd50911610059578063b2acd50914610284578063caa26032146102a4578063ce1b193a146102d1578063ec8b466a146102e457600080fd5b8063763efc081461021a578063786727d41461022f5780637d94792a1461024f578063ae98db2f1461026f57600080fd5b8063420b7dae116100c6578063420b7dae146101945780634849f279146101c357806349d3d605146101f057806357fc10a31461020557600080fd5b80630313bf86146100f8578063145b0563146101235780631a0fe7cd146101455780633148f14f14610174575b600080fd5b34801561010457600080fd5b5061010d600281565b60405161011a9190611e5c565b60405180910390f35b34801561012f57600080fd5b50610138610304565b60405161011a9190611e7f565b34801561015157600080fd5b5061010d610160366004611ea8565b600260205280600052604060002054905081565b34801561018057600080fd5b5061010d61018f366004611ed1565b610360565b3480156101a057600080fd5b5061010d6101af366004611ea8565b600160205280600052604060002054905081565b3480156101cf57600080fd5b506101e36101de366004611f21565b6103ae565b60405161011a9190611fcd565b3480156101fc57600080fd5b5061010d600481565b34801561021157600080fd5b5061010d600881565b34801561022657600080fd5b5061010d600181565b34801561023b57600080fd5b5061010d61024a366004611ea8565b6103f7565b34801561025b57600080fd5b50600054610138906001600160401b031681565b34801561027b57600080fd5b5061010d601081565b34801561029057600080fd5b5061010d61029f3660046120d8565b6105b6565b3480156102b057600080fd5b506102c46102bf3660046120d8565b6105f6565b60405161011a919061216e565b61010d6102df3660046121b7565b61065f565b3480156102f057600080fd5b506101e36102ff366004611ed1565b611db3565b60008054638000000090610325906001600160401b03166341c64e6d612202565b61033190613039612228565b61033b9190612261565b6000805467ffffffffffffffff19166001600160401b03929092169182179055919050565b600060405160208152602080820152602060408201528460608201528360808201528260a082015260c05160208160c08460006005600019f16103a257600080fd5b80519695505050505050565b6103b6611df4565b6103be611e0f565b8581526020810185905260408082018590526060820184905282608083600060065af180806103ec57600080fd5b505050949350505050565b6000806104058360016122a4565b6001600160401b0381111561041c5761041c611fdb565b604051908082528060200260200182016040528015610445578160200160208202803683370190505b50905060025b8381116104885760018282815181106104665761046661228e565b9115156020928302919091019091015280610480816122b7565b91505061044b565b5060025b8361049782806122d1565b1161051a578181815181106104ae576104ae61228e565b6020026020010151156105085760006104c782806122d1565b90505b8481116105065760008382815181106104e5576104e561228e565b911515602092830291909101909101526104ff82826122a4565b90506104ca565b505b80610512816122b7565b91505061048c565b50600060025b848111610577578281815181106105395761053961228e565b60200260200101511561056557600082815260026020528190604090205581610561816122b7565b9250505b8061056f816122b7565b915050610520565b507fecf0a5da57580315b5c32f39d0869cbed72546586507126c76a527fff7546f03816040516105a79190611e5c565b60405180910390a19392505050565b600080825190506105c860c0826122e9565b156105d257600080fd5b6040516020818360208701600060085af18080156100f35782519695505050505050565b6060600082516001600160401b0381111561061357610613611fdb565b604051818152601f19601f830116810160200160405290801561063d576020820181803683370190505b509050825180602083018260208701600060045af161065857fe5b5092915050565b6000805467ffffffffffffffff19166001600160401b0385161781557fc3d061145c6780aa75b1571871bdd6f99372c60434f33d8afa5409ef5c72633a846040516106aa9190611e7f565b60405180910390a1600080600080600080600080600060405160405180910390a060005b8c63ffffffff168163ffffffff161015611cc2576106ea610304565b6001600160401b031699506106fd610304565b6001600160401b03169850610712898b6122a4565b60405160200161072291906122fa565b604051602081830303815290604052805190602001209550610742610304565b6001600160401b03169950610755610304565b6001600160401b031698508561076b8a8c6122d1565b60405160200161077c92919061230f565b60405160208183030381529060405280519060200120955061079c610304565b6001600160401b031699506107af610304565b6001600160401b0316985085898b036040516020016107cf92919061230f565b604051602081830303815290604052805190602001209550599950858a6040516020016107fd92919061230f565b604051602081830303815290604052805190602001209550389950858a60405160200161082b92919061230f565b60405160208183030381529060405280519060200120955061084b610304565b6001600160401b0316995061085e610304565b6001600160401b03169850856108748a8c612335565b60405160200161088592919061230f565b6040516020818303038152906040528051906020012095506108a5610304565b6001600160401b031699506108b8610304565b6001600160401b03169850856108d08a600019612349565b6108da908c61237a565b6040516020016108eb92919061230f565b60405160208183030381529060405280519060200120955061090b610304565b6001600160401b0316995061091e610304565b6001600160401b03169850856109348a8c6122e9565b60405160200161094592919061230f565b604051602081830303815290604052805190602001209550610965610304565b6001600160401b03169950610978610304565b6001600160401b03169850856109908a600019612349565b61099a908c6123a8565b6040516020016109ab92919061230f565b6040516020818303038152906040528051906020012095506109cb610304565b6001600160401b031699506109de610304565b6001600160401b031698506109f1610304565b6001600160401b03169750858880610a0b57610a0b61224b565b8a8c08604051602001610a1f92919061230f565b604051602081830303815290604052805190602001209550610a3f610304565b6001600160401b03169950610a52610304565b6001600160401b03169850610a65610304565b6001600160401b03169750858880610a7f57610a7f61224b565b8a8c09604051602001610a9392919061230f565b604051602081830303815290604052805190602001209550610ab3610304565b6001600160401b03169950610ac6610304565b6001600160401b0316985085898b0a604051602001610ae692919061230f565b604051602081830303815290604052805190602001209550610b06610304565b6001600160401b03169950858a60030b604051602001610b2792919061230f565b604051602081830303815290604052805190602001209550610b47610304565b6001600160401b03169950610b5a610304565b6001600160401b0316985085898b10610b735789610b75565b8a5b604051602001610b8692919061230f565b604051602081830303815290604052805190602001209550610ba6610304565b6001600160401b03169950610bb9610304565b6001600160401b0316985085898b11610bd25789610bd4565b8a5b604051602001610be592919061230f565b604051602081830303815290604052805190602001209550610c05610304565b6001600160401b03169950610c18610304565b6001600160401b0316985085898b12610c315789610c33565b8a5b604051602001610c4492919061230f565b604051602081830303815290604052805190602001209550610c64610304565b6001600160401b03169950610c77610304565b6001600160401b0316985085898b13610c905789610c92565b8a5b604051602001610ca392919061230f565b604051602081830303815290604052805190602001209550610cc3610304565b6001600160401b03169950610cd6610304565b6001600160401b0316985085898b14610cef5789610cf1565b8a5b604051602001610d0292919061230f565b604051602081830303815290604052805190602001209550610d22610304565b6001600160401b03169950610d35610304565b6001600160401b03169850858a15610d4d5789610d4f565b8a5b604051602001610d6092919061230f565b604051602081830303815290604052805190602001209550610d80610304565b6001600160401b03169950610d93610304565b6001600160401b0316985085898b16604051602001610db392919061230f565b604051602081830303815290604052805190602001209550610dd3610304565b6001600160401b03169950610de6610304565b6001600160401b0316985085898b17604051602001610e0692919061230f565b604051602081830303815290604052805190602001209550610e26610304565b6001600160401b03169950610e39610304565b6001600160401b0316985085898b18604051602001610e5992919061230f565b604051602081830303815290604052805190602001209550610e79610304565b6001600160401b03169950858a19604051602001610e9892919061230f565b604051602081830303815290604052805190602001209550858060001a60f81b604051602001610ec99291906123cc565b604051602081830303815290604052805190602001209550610ee9610304565b6001600160401b031699508560018b901b604051602001610f0b92919061230f565b604051602081830303815290604052805190602001209550610f2b610304565b6001600160401b031699508560018b901c604051602001610f4d92919061230f565b604051602081830303815290604052805190602001209550610f6d610304565b6001600160401b031699508560018b901d604051602001610f8f92919061230f565b6040516020818303038152906040528051906020012095508594508430604051602001610fbd92919061242b565b6040516020818303038152906040528051906020012095508530803b602081016040519081016040528181526000908060200190933c604051602001611004929190612479565b60405160208183030381529060405280519060200120955085303f60405160200161103092919061230f565b6040516020818303038152906040528051906020012095508560003160405160200161105d92919061230f565b604051602081830303815290604052805190602001209550854760405160200161108892919061230f565b604051602081830303815290604052805190602001209550855a6040516020016110b392919061230f565b6040516020818303038152906040528051906020012095506001808d160361112c5785326040516020016110e892919061242b565b604051602081830303815290604052805190602001209550853a60405160200161111392919061230f565b6040516020818303038152906040528051906020012095505b85935060011960028d16016111f757853360405160200161114e92919061242b565b6040516020818303038152906040528051906020012095508560003660405160200161117c939291906124a8565b604051602081830303815290604052805190602001209550856000356001600160e01b0319166040516020016111b39291906124de565b60405160208183030381529060405280519060200120955085346040516020016111de92919061230f565b6040516020818303038152906040528051906020012095505b85925060031960048d16016113605785434060405160200161121a92919061230f565b604051602081830303815290604052805190602001209550854860405160200161124592919061230f565b604051602081830303815290604052805190602001209550854660405160200161127092919061230f565b604051602081830303815290604052805190602001209550854160405160200161129b92919061242b565b60405160208183030381529060405280519060200120955085446040516020016112c692919061230f565b60405160208183030381529060405280519060200120955085456040516020016112f192919061230f565b604051602081830303815290604052805190602001209550854360405160200161131c92919061230f565b604051602081830303815290604052805190602001209550854260405160200161134792919061230f565b6040516020818303038152906040528051906020012095505b85915060071960088d16016118fe57611377610304565b6001600160401b03169950600060405161139090611e2b565b604051809103906000f0801580156113ac573d6000803e3d6000fd5b50905060008b6040516113be90611e2b565b8190604051809103906000f59050801580156113de573d6000803e3d6000fd5b509050806001600160a01b031663edb45529336040518263ffffffff1660e01b815260040161140d919061250d565b600060405180830381600087803b15801561142757600080fd5b505af115801561143b573d6000803e3d6000fd5b50505050816001600160a01b031663d09de08a6040518163ffffffff1660e01b81526004016020604051808303816000875af115801561147f573d6000803e3d6000fd5b50505050604051601f3d908101601f191682016040526114a2919081019061252a565b9b50878c6040516020016114b792919061230f565b604051602081830303815290604052805190602001209750816001600160a01b0316632efc3cee6040518163ffffffff1660e01b8152600401600060405180830381600087803b15801561150a57600080fd5b505af192505050801561151b575060015b611551573d808015611549576040513d603f01601f191681016040523d815291503d6000602084013e61154e565b606091505b50505b87826001600160a01b0316803b806020016040519081016040528181526000908060200190933c604051602001611589929190612479565b60405160208183030381529060405280519060200120975087826001600160a01b03163f6040516020016115be92919061230f565b604051602081830303815290604052805190602001209750816001600160a01b031661c350604051602401604051601f1981830301815260409190915263684ef04560e11b6020820180516001600160e01b03169091179052604051611624919061254b565b60006040518083038160008787f1925050503d8060008114611662576040513d603f01601f191681016040523d815291503d6000602084013e611667565b606091505b506004600060036116788482612646565b50815460ff6101009290920a82810219909116941515029390931790555060045489911660036040516020016116b0939291906127c2565b604051602081830303815290604052805190602001209750816001600160a01b031661c350604051602401604051601f1981830301815260409190915263684ef04560e11b6020820180516001600160e01b03169091179052604051611716919061254b565b6000604051808303818686f4925050503d8060008114611752576040513d603f01601f191681016040523d815291503d6000602084013e611757565b606091505b506004600060036117688482612646565b50815460ff6101009290920a82810219909116941515029390931790555060045489911660036040516020016117a0939291906127c2565b604051602081830303815290604052805190602001209750816001600160a01b031661c350604051602401604051601f1981830301815260409190915263684ef04560e11b6020820180516001600160e01b03169091179052604051611806919061254b565b6000604051808303818686fa925050503d8060008114611842576040513d603f01601f191681016040523d815291503d6000602084013e611847565b606091505b506004600060036118588482612646565b50815460ff6101009290920a8281021990911694151502939093179055506004548991166003604051602001611890939291906127c2565b604051602081830303815290604052805190602001209750816001600160a01b03166307da68f56040518163ffffffff1660e01b8152600401600060405180830381600087803b1580156118e357600080fd5b505af11580156118f7573d6000803e3d6000fd5b5050505050505b6010808d1603611cb057611910610304565b6001600160401b03169950611923610304565b6001600160401b03169850611936610304565b6001600160401b0316975060006001818c8c8c6040516000815260200160405260405161196694939291906127f7565b6020604051602081039080840390855afa158015611988573d6000803e3d6000fd5b50505060206040510351905086816040516020016119a792919061242b565b6040516020818303038152906040528051906020012096506119c7610304565b6001600160401b03169a508660028c6040516020016119e691906122fa565b604051602081830303815290604052604051611a02919061254b565b602060405180830381855afa158015611a1f573d6000803e3d6000fd5b505050604051601f3d908101601f19168201604052611a41919081019061252a565b604051602001611a5292919061230f565b604051602081830303815290604052805190602001209650611a72610304565b6001600160401b03169a508660038c604051602001611a9191906122fa565b604051602081830303815290604052604051611aad919061254b565b602060405180830381855afa158015611aca573d6000803e3d6000fd5b5050506040515160601b604051602001611ae5929190612841565b604051602081830303815290604052805190602001209650611b05610304565b6001600160401b03169a5086611b398c604051602001611b259190611e5c565b6040516020818303038152906040526105f6565b604051602001611b4a929190612479565b604051602081830303815290604052805190602001209650611b6a610304565b6001600160401b03169a50611b7d610304565b6001600160401b0316995086611b958c60188d610360565b604051602001611ba692919061230f565b604051602081830303815290604052805190602001209650611bc6610304565b6001600160401b03169a50611bd9610304565b6001600160401b03169950611bec610304565b6001600160401b03169850611bff610304565b6001600160401b0316975086611c178c8c8c8c6103ae565b604051602001611c28929190612889565b604051602081830303815290604052805190602001209650611c48610304565b6001600160401b03169a50611c5b610304565b6001600160401b03169950611c6e610304565b6001600160401b0316985086611c858c8c8c611db3565b604051602001611c96929190612889565b604051602081830303815290604052805190602001209650505b611cbb8160016128af565b90506106ce565b50837f43789b30e4c6d53e2735e5701207b0529b2cc229b1bb02b9691d39ea218da7d760405160405180910390a282847f2cb86086bc7610782fc8606ba68800cd21b2cf5bd9d9f8013901905a6ff4ea5d60405160405180910390a38183857f94a22450ea7126d5b48f3821ef09c72720792d25bc260ec45a2022138056795d60405160405180910390a48183857f8f3114e000b94fa698cab3c38969007ff46d5d80a945dcde765372b1d1383f5284604051611d7f9190611e5c565b60405180910390a46001600160401b038d16600090815260016020528590604090205550929b9a5050505050505050505050565b611dbb611df4565b611dc3611e38565b84815260208101849052604080820184905282606083600060075af18080611dea57600080fd5b5050509392505050565b60405160408082018152600290829080368337509192915050565b6040516080808201604052600490829080368337509192915050565b61023d806128d083390190565b6040516060808201604052600390829080368337509192915050565b805b82525050565b60208101611e6a8284611e54565b92915050565b6001600160401b038116611e56565b60208101611e6a8284611e70565b805b8114611e9a57600080fd5b50565b8035611e6a81611e8d565b600060208284031215611ebd57611ebd600080fd5b6000611ec98484611e9d565b949350505050565b600080600060608486031215611ee957611ee9600080fd5b6000611ef58686611e9d565b9350506020611f0686828701611e9d565b9250506040611f1786828701611e9d565b9150509250925092565b60008060008060808587031215611f3a57611f3a600080fd5b6000611f468787611e9d565b9450506020611f5787828801611e9d565b9350506040611f6887828801611e9d565b9250506060611f7987828801611e9d565b91505092959194509250565b6000611f918383611e54565b505060200190565b6002818060005b83811015611fc5578151611fb48782611f85565b965060208301925050600101611fa0565b505050505050565b60408101611e6a8284611f99565b634e487b7160e01b600052604160045260246000fd5b601f19601f83011681018181106001600160401b038211171561201657612016611fdb565b6040525050565b600061202c6000604051905090565b90506120388282611ff1565b919050565b60006001600160401b0382111561205657612056611fdb565b601f19601f83011660200192915050565b82818337506000910152565b60006120866120818461203d565b61201d565b9050828152602081018484840111156120a1576120a1600080fd5b6120ac848285612067565b509392505050565b600082601f8301126120c8576120c8600080fd5b8135611ec9848260208601612073565b6000602082840312156120ed576120ed600080fd5b81356001600160401b0381111561210657612106600080fd5b611ec9848285016120b4565b60005b8381101561212d578082015183820152602001612115565b50506000910152565b6000612146826000815192915050565b80845260208401935061215d818560208601612112565b601f01601f19169290920192915050565b6020808252810161217f8184612136565b9392505050565b6001600160401b038116611e8f565b8035611e6a81612186565b63ffffffff8116611e8f565b8035611e6a816121a0565b6000806000606084860312156121cf576121cf600080fd5b60006121db8686612195565b9350506020611f06868287016121ac565b634e487b7160e01b600052601160045260246000fd5b6001600160401b03918216919081169082820290811690818114610658576106586121ec565b6001600160401b03918216919081169082820190811115611e6a57611e6a6121ec565b634e487b7160e01b600052601260045260246000fd5b60006001600160401b03821691506001600160401b0383165b9250826122895761228961224b565b500690565b634e487b7160e01b600052603260045260246000fd5b80820180821115611e6a57611e6a6121ec565b600060001982036122ca576122ca6121ec565b5060010190565b818102808215838204851417610658576106586121ec565b60008261227a565b80611e56565b90565b600061230682846122f1565b50602001919050565b600061231b82856122f1565b60208201915061232b82846122f1565b5060200192915050565b6000826123445761234461224b565b500490565b8181028060008312600160ff1b85141615612366576123666121ec565b8282058414831517610658576106586121ec565b6000826123895761238961224b565b600160ff1b8214600019841416156123a3576123a36121ec565b500590565b6000826123b7576123b761224b565b500790565b6001600160f81b03198116611e56565b60006123d882856122f1565b6020820191506123e882846123bc565b5060010192915050565b60006001600160a01b038216611e6a565b6000611e6a8260601b90565b6000611e6a82612403565b611e56612426826123f2565b61240f565b600061243782856122f1565b602082019150612447828461241a565b5060140192915050565b6000612461826000815192915050565b61246f818560208601612112565b9290920192915050565b600061248582856122f1565b602082019150611ec98284612451565b60006124a2838584612067565b50500190565b60006124b482866122f1565b6020820191506124c5828486612495565b95945050505050565b6001600160e01b03198116611e56565b60006124ea82856122f1565b6020820191506124fa82846124ce565b5060040192915050565b611e56816123f2565b60208101611e6a8284612504565b600081519050611e6a81611e8d565b60006020828403121561253f5761253f600080fd5b6000611ec9848461251b565b600061217f8284612451565b634e487b7160e01b600052602260045260246000fd5b60028104600182168061258157607f821691505b60208210810361259357612593612557565b50919050565b6000611e6a6122f78381565b6125ae83612599565b815460001960089490940293841b1916921b91909117905550565b60006125d68184846125a5565b505050565b818110156125f6576125ee6000826125c9565b6001016125db565b5050565b601f8211156125d65761261881600081815281906020902092915050565b6020601f8501048101602085101561262d5750805b61263f6020601f8601048301826125db565b5050505050565b612654826000815192915050565b6001600160401b0381111561266b5761266b611fdb565b612675825461256d565b6126808282856125fa565b6020601f8311600181146126b5576000841561269d578287015190505b600019600886021c1981166002860217865550611fc5565b601f1984166126cf86600081815281906020902092915050565b60005b828110156126f257848901518255602094850194600190920191016126d2565b8683101561270e5784890151600019601f89166008021c191682555b600160028802018855505050505050505050565b6000611e6a8260f81b90565b6000611e6a82612722565b611e5681151561272e565b600081546127518161256d565b600182168015612768576001811461277d576127b9565b60ff19831686528115158202860193506127b9565b61279285600081815281906020902092915050565b60005b838110156127b157815488820152600190910190602001612795565b838801955050505b50505092915050565b60006127ce82866122f1565b6020820191506127de8285612739565b6001820191506124c58284612744565b60ff8116611e56565b608081016128058287611e54565b61281260208301866127ee565b61281f6040830185611e54565b6124c56060830184611e54565b6bffffffffffffffffffffffff198116611e56565b600061284d82856122f1565b602082019150612447828461282c565b6002818060005b83811015611fc55781516128788782611f85565b965060208301925050600101612864565b600061289582856122f1565b6020820191506128a5828461285d565b5060400192915050565b63ffffffff918216919081169082820190811115611e6a57611e6a6121ec56fe608060405234801561001057600080fd5b5061021d806100206000396000f3fe608060405234801561001057600080fd5b50600436106100625760003560e01c806307da68f5146100675780632efc3cee146100715780633fb5c1cb146100795780638381f58a1461008c578063d09de08a146100ab578063edb45529146100b3575b600080fd5b61006f6100c6565b005b61006f6100db565b61006f61008736600461013c565b600055565b61009560005481565b6040516100a29190610165565b60405180910390f35b6100956100f3565b61006f6100c1366004610196565b61010f565b6000805490806100d5836101cd565b91905055005b6000805490806100ea836101cd565b91905055600080fd5b600080548180610102836101cd565b9190505550600054905090565b806001600160a01b0316ff5b805b811461012857600080fd5b50565b80356101368161011b565b92915050565b60006020828403121561015157610151600080fd5b600061015d848461012b565b949350505050565b81815260208101610136565b60006001600160a01b038216610136565b61011d81610171565b803561013681610182565b6000602082840312156101ab576101ab600080fd5b600061015d848461018b565b634e487b7160e01b600052601160045260246000fd5b600060001982036101e0576101e06101b7565b506001019056fea2646970667358221220116ac9326d17e52c0f4cfb81e5a3c3fe3d9d96f537703c2b8499e7be4005153864736f6c63430008130033a264697066735822122091407ca5935bfa96c1b01d24568a634d5b5d2e69da15d39fa2567b66f2d6d64764736f6c63430008130033","linkReferences":{}},"methodIdentifiers":{"calcPrimes(uint256)":"786727d4","callBn256Add(bytes32,bytes32,bytes32,bytes32)":"4849f279","callBn256Pairing(bytes)":"b2acd509","callBn256ScalarMul(bytes32,bytes32,bytes32)":"ec8b466a","callDatacopy(bytes)":"caa26032","executionResults(uint256)":"420b7dae","generateNumber()":"145b0563","modExp(uint256,uint256,uint256)":"3148f14f","modeBlock()":"49d3d605","modeContract()":"57fc10a3","modeMsg()":"0313bf86","modePrecompile()":"ae98db2f","modeTx()":"763efc08","primeNumbers(uint256)":"1a0fe7cd","seed()":"7d94792a","test(uint64,uint32,uint256)":"ce1b193a"},"id":0}